:020000040800F2
:10000000B8050020A1010008AF160008351500084A
:10001000AD160008AD020008951B000800000000A6
:10002000000000000000000000000000B3160008FF
:100030006D03000800000000B1160008B5160008A6
:10004000BB010008BB010008BB010008BB010008A0
:10005000BB010008BB010008BB010008BB01000890
:10006000BB010008BB010008BB010008BB01000880
:10007000BB010008BB010008BB010008BB01000870
:10008000BB010008BB010008BB010008BB01000860
:10009000BB010008BB010008BB010008BB01000850
:1000A000BB010008BB010008BB010008BB01000840
:1000B000BB010008BB01000869170008BB0100086C
:1000C000BB010008BB010008BB010008BB01000820
:1000D000BB010008BB010008BB010008BB01000810
:1000E000BB010008BB010008BB010008BB01000800
:1000F000BB010008BB010008BB010008BB010008F0
:10010000BB010008BB010008BB010008BB010008DF
:10011000BB010008BB010008BB010008BB010008CF
:10012000BB010008B1020008BB010008BB010008C8
:10013000BB0100080000000000000000BB01000837
:10014000BB010008BB010008BB010008BB0100089F
:10015000BB010008BD020008BB010008891B0008A4
:10016000BB010008BB010008BB010008BB0100087F
:10017000BB010008BB0100080000000000000000F7
:10018000BB010008BB010008DFF810D000F07CF8CC
:1001900000480047D51B0008AFF30080B8050020D9
:1001A0000648804706480047FEE7FEE7FEE7FEE711
:1001B000FEE7FEE7FEE7FEE7FEE7FEE74D17000875
:1001C000890100082DE9F05F0546002092469B4614
:1001D00088460646814640241BE02846414647465D
:1001E000224600F041F853465A46C01A914110D3B6
:1001F00011461846224600F028F82D1A67EB010830
:100200004F4622460120002100F01FF817EB00099D
:100210004E41201EA4F10104DFDC484631462A4647
:100220004346BDE8F09FD2B201E000F8012B491E21
:10023000FBD270470022F6E710B513460A46044683
:100240001946FFF7F0FF204610BD202A04DB203AB4
:1002500000FA02F1002070479140C2F1200320FA19
:1002600003F3194390407047202A04DB203A21FA17
:1002700002F00021704721FA02F3D040C2F12002BF
:100280009140084319467047064C074D06E0E06868
:1002900040F0010394E8070098471034AC42F6D3CD
:1002A000FFF776FF381C0008581C0008FEE7000026
:1002B000014800F071B80000F8000020014800F08B
:1002C0006BB800005801002001681823CAB2103A28
:1002D000B2FBF3F2054B6FF30901032A9B5CC36584
:1002E00000D9091D8165084670470000181C0008E8
:1002F00010B5014600208B698A6A4FF0C07453B173
:10030000B3F5005F15D072B1012A0CD0022A0AD0D1
:10031000032A09D104E01AB1012A06D0022A03D126
:10032000C96AC90100D5012010BDC96AA142FAD02D
:1003300010BD002AF7D0012AF2D0022AF3D0032AF6
:10034000F3D010BD30B50468256825F480252560FC
:10035000046863608368402B036803D09960006879
:10036000C26030BD9A600068C16030BD704772B62F
:10037000FEE790F83510022903D080214165012065
:100380007047052180F835100068016821F00101EF
:1003900001600020704700002DE9F84304464FF04B
:1003A0000009CDF8009063484FF41651A56D006820
:1003B000B0FBF1F72E6894F85C10082000FA01F108
:1003C00031420FD021680A6852070BD50A6822F023
:1003D00004020A6094F85C108840A860606D40F0E8
:1003E0000100606594F85C104FF0010808FA01F014
:1003F000304208D021684969090604D5A860606DBB
:1004000040F00200606594F85C100420884030429F
:1004100008D021680968890704D5A860606D40F09C
:100420000400606594F85C1010208840304218D0B9
:1004300021680968090714D5A86020680168490384
:1004400004D50068000308D5A16C07E00168C90560
:1004500003D4016821F008010160216C09B1204634
:10046000884794F85C1020208840304231D02168C1
:100470000968C9062DD5A86094F8350005282068BC
:10048000016806D0490347D5006800031DD4616C9C
:100490001CE021F0160101602068416921F0800113
:1004A0004161206C08B9A06C20B12068016821F07E
:1004B0000801016094F85C103F208840A86084F82F
:1004C000349084F83580216D1FE0E16B09B120463E
:1004D0008847606D00282BD0606DC00714D00520C0
:1004E00084F835002068016821F00101016000985E
:1004F000401C0090B84203D820680068C007F6D1BD
:1005000084F8349084F83580E16C002910D001B073
:100510002046BDE8F04308470168C905D5D4016805
:1005200021F01001016084F8349084F83580CCE724
:10053000BDE8F883140000202DE9F041044600F0E6
:100540007FF906465CB1002584F83450022084F817
:1005500035002068016821F0010101600DE00120F3
:10056000BDE8F08100F06CF9801B052805D920203A
:100570006065032084F83500F2E720680068C00752
:10058000F0D12268116820480140D4E901031843E2
:10059000D4E903363343184363691843A369184306
:1005A000E3691843236A18430843616A042903D1A5
:1005B000D4E90B1319430843106020684069666A48
:1005C00020F0070130460E43012704280CD1A06A11
:1005D0000643E06A40B12046FFF78AFE20B1402082
:1005E000606584F83570BAE7206846612046FFF7F9
:1005F0006BFE94F85C203F2191408160656584F832
:1006000035700020ACE700003F8010F02DE9F0418C
:100610000446866D90F83400002501280DD0012095
:1006200084F8340094F835700020012F07D084F846
:10063000340002252846BDE8F0810220FBE70227AE
:1006400084F8357060652046FFF77CFE94F85C10F6
:100650003F208840B0602068016841F016010160C9
:10066000206C20B12068016841F008010160206819
:10067000016841F001010160DCE700002DE9F84F5D
:1006800000224FF0010803254FF00F0E0B6808FA07
:1006900002F42340A3426ED14E68012E05D0022EF3
:1006A00003D0112E01D0122E12D186684FEA420CCF
:1006B00005FA0CF7BE43CF6807FA0CF7374387609B
:1006C0004668A6430C79C4F3001494403443446054
:1006D000C668570005FA07FC8C6826EA0C06BC4081
:1006E0003443C4604C68022C01D0122C13D1D408BE
:1006F00000EB8404A346D4F8209054074FEAD46A50
:100700000EFA0AF629EA06090E6906FA0AF646EA18
:100710000906CBF8206006680C7926EA0C0604F07E
:100720000304BC40344304604C68E40065D5364C97
:10073000266846F480462660246822F0030604F406
:1007400080440094314C3444A446D4F808489607B9
:10075000370F0EFA07F6B4432D4EB04201D10026F2
:1007600024E02C4EB04201D101261FE02A4EB042B7
:1007700002D102261AE040E0284EB04201D1032601
:1007800014E0274EB04201D104260FE0254EB042BE
:1007900001D105260AE0244EB04201D1062605E02B
:1007A000224EB04201D1072600E00826BE40264373
:1007B000CCF808681E4E34684F689C43FF0300D590
:1007C0001C4334601A4C241D26684F689E43BF03A7
:1007D00000D51E432660164E083634684F689C4389
:1007E000FF0200D51C433460114E0C3634684F684C
:1007F0009C43BF0200D51C433460521C102AFFF4F6
:1008000045AFBDE8F88F0000443802400030014099
:10081000000002400004024000080240000C0240B8
:10082000001002400014024000180240001C024068
:10083000003C01400AB1816170470904FBE70000F8
:100840000148806870470000080000200248816865
:100850000278114481607047080000200B4810B5F1
:10086000016841F400710160016841F48061016038
:10087000016841F480710160032000F06FF80020EE
:1008800000F006F800F024F8002010BD003C024003
:1008900070B50D4D04464FF47A712878B1FBF0F035
:1008A0000A490968B1FBF0F000F002FB48B9102CCE
:1008B00007D200222146501E00F030F800206C6064
:1008C00070BD012070BD0000080000201400002051
:1008D0000A4808B5016841F480410160006800F4ED
:1008E000804000900548001F016841F08051016080
:1008F000006800F08050009008BD000044380240BD
:10090000002809DB00F01F0201219140400980000E
:1009100000F1E020C0F8001170470000F0B40E4B69
:100920001B680C46C3F30223C3F10705042D00D94D
:100930000425191D072901D2002300E0DB1E012632
:1009400006FA05F1491E214099409E40761E164048
:100950003143F0BC01F01FB90CED00E0064900F096
:10096000070208684FF6FF03184040EA0220034AD6
:1009700010430860704700000CED00E00000FA052D
:100980002DE9F0470E46050065D0DFF81481D8F850
:100990000000F7B200F00F00B04207D288F80070F4
:1009A000D8F8000000F00F00B04254D128683D4C48
:1009B000810712D5400703D5206840F4E05020603D
:1009C0002878000703D5206840F460402060206844
:1009D000A96820F0F000084320602878C0072DD0D7
:1009E000304968680839012812D0022813D003283A
:1009F00011D00968890700292DDA216821F0030147
:100A000001432160FFF71CFF814641F2883A0EE066
:100A100009688903EFE709688901ECE7FFF710FF30
:100A2000A0EB0901514502D90320BDE8F0872068F9
:100A3000696800F00C00B0EB810FEFD1D8F800101E
:100A4000404601F00F01B14207D90770006800F07D
:100A50000F00B04201D00120E7E72878400705D514
:100A60002068E96820F4E0500843206028780007F7
:100A700006D52068296920F4604040EAC100206062
:100A800000F038F82168084AC1F30311515CC840EE
:100A90000649086006480068FFF7FAFE0020C4E730
:100AA000003C024008380240201C000814000020CE
:100AB0000C0000200448054900680968044AC1F395
:100AC0008221515CC8407047140000200838024061
:100AD000301C00080448054900680968044AC1F34D
:100AE0004231515CC8407047140000200838024071
:100AF000301C0008154810B5006810F00C021448AE
:100B000013D04110042A0FD0082A0ED10F4C241FF5
:100B10002268236802F03F025B0207D52068C0F319
:100B20008810A0FB010106E0084610BD2168C1F352
:100B30008811A1FB00010023FFF744FB2168C1F3EA
:100B40000141491C4900B0FBF1F010BD08380240DA
:100B50000024F4002DE9F84F04006ED02078DFF86F
:100B60003C93C007A9F104054AD009F104000168CB
:100B7000C1F38101012908D00068C0F38100022877
:100B80000AD1D9F80000400206D52868800337D57D
:100B900060680028E1D033E06068B0F5803F10D095
:100BA000B0F5A02F286810D020F480302860286885
:100BB00020F4802028606068A8B1FFF741FE064657
:100BC0000DE0286840F48030F4E740F4802028608D
:100BD000F7E700BFFFF734FE801B642873D828684E
:100BE0008003F7D50CE0FFF72BFE064605E000BFBB
:100BF000FFF726FE801B6428F0D828688003F7D40E
:100C00002078DFF89C8280074FF0000A3ED5A34889
:100C1000001D016811F00C0F08D00068C0F38100BE
:100C200002280BD1D9F80000400207D428688007B9
:100C300016D5E068012800D112E02BE1E068B8B1D8
:100C40000120C8F80000FFF7FBFD064605E000BFE5
:100C5000FFF7F6FD801B0228C0D828688007F7D56B
:100C60002868216920F0F80040EAC10028600DE002
:100C7000C8F800A0FFF7E4FD064604E0FFF7E0FD3A
:100C8000801B02281FD828688007F7D42078000727
:100C900022D5824E83486169703671B101210160AD
:100CA000FFF7CEFD074604E0FFF7CAFDC01B022890
:100CB00009D830688007F7D50EE0C0F800A0FFF72C
:100CC000BFFD074605E082E0FFF7BAFDC01B022822
:100CD0007DD830688007F7D42078400768D5DFF8E2
:100CE000BCB100270BF13C0BDBF80000C0000BD4BB
:100CF000DBF8001041F08051CBF80010DBF8000069
:100D0000012700F080500090674E3068C00510D475
:100D1000306840F480703060FFF792FD009005E08D
:100D2000FFF78EFD0099401A022850D83068C005A0
:100D3000F6D55A4EA0686C3601280FD005283068C9
:100D400010D020F001003060306820F004003060E6
:100D5000A068B8B1FFF774FD00900FE0306840F074
:100D60000100F4E740F004003060F7E7FFF768FDAA
:100D70000099411A41F28830814266D83068800774
:100D8000F4D50EE0FFF75CFD009007E0FFF758FD9B
:100D90000099411A41F28830814256D83068800764
:100DA000F4D42FB1DBF8001021F08051CBF8001003
:100DB000A069C8B33949091D0968C1F38101022935
:100DC0004AD00228504607D0C8F8600000E03CE056
:100DD000FFF736FD04463BE04746C8F86000FFF7E2
:100DE0002FFD064605E000BFFFF72AFD801B022805
:100DF0002BD828688001F7D4D4E907010843A16AF9
:100E00002A4A490802EB0141626A41EA8211084319
:100E100094F82C1040EA0161C9F8001001203866EE
:100E2000FFF70EFD044606E036E000BFFFF708FDC1
:100E3000001B022809D828688001F7D52CE000BFE4
:100E4000FFF7FEFC001B022802D90320BDE8F88F43
:100E500028688001F4D41FE00128F7D0D9F80000F9
:100E6000E26900F48001914214D1226A00F03F014E
:100E700091420FD147F6C071626A0140914209D197
:100E8000A26A00F44031914204D1E16A00F070603E
:100E9000884201D00120D9E70020D7E7043802407A
:100EA00000004742800E4742007000400000FFFFF4
:100EB00010B5401EB0F1807F01D3012010BD4FF06E
:100EC000E02460610F21601700F065FE0020A06142
:100ED00007202061002010BD7047704770B590F862
:100EE0003C20012A32D0012480F83C40022280F8C4
:100EF0003D2003685A689D6822F070060A683243F4
:100F00005A60134B02689A4214D0B2F1804F11D04C
:100F1000104B9A420ED0104B9A420BD00F4B9A4274
:100F200008D00F4B9A4205D00E4B9A4202D00E4B7E
:100F30009A4204D1496825F080031943916080F8F2
:100F40003D40002180F83C10084670BD022070BD75
:100F5000000001400004004000080040000C004078
:100F600000040140004001400018004010B504009A
:100F700003D094F83D0010B107E0012010BD00201F
:100F800084F83C00204600F00DF8022084F83D0073
:100F9000211D206800F0EEFB012084F83D000020B8
:100FA00010BD000008B500680B49884212D10B48FB
:100FB000016841F0040101600068002200F00400B3
:100FC000009011461E20FFF7A9FCBDE808401E2036
:100FD000FFF796BC08BD0000000800404038024002
:100FE0000168CA6842F00102CA600068816801F0C5
:100FF0000701062903D0016841F0010101600020CA
:10100000704770B5044690F83C00012817D00125C0
:1010100084F83C50022084F83D002068826822F069
:10102000770222F47F4282600868502830D00DDCBD
:1010300020284DD005DC98B310283BD148E0022091
:1010400070BD302844D0402834D139E0602828D001
:10105000702806D0B0F5805F2CD0B0F5005F29D1A4
:101060000AE0CB68D1E90121206800F0E7FB2068A5
:10107000816841F0770109E0CB68D1E9012120685E
:1010800000F0DCFB2068816841F48041816011E060
:10109000CA684968206800F0E3FB5021206807E037
:1010A00016E0CA684968206800F0EBFB6021206800
:1010B00000F0CEFB84F83D50002084F83C0070BD69
:1010C000CA684968206800F0CBFB40212068EFE740
:1010D000226801461046EBE7704770B50446006889
:1010E00001694FF00005C943890715D4C168C94398
:1010F000890711D4E91E01610120207720688069E9
:101100008007204602D0FFF7E7FF04E000F098F8E0
:10111000204600F096F8257720680169C943490701
:1011200017D4C168C943490713D46FF004010161A2
:10113000022020772068806910F4407F204602D08A
:10114000FFF7CAFF04E000F07BF8204600F079F8D2
:10115000257720680169C943090716D4C168C943C6
:10116000090712D46FF0080101610420207720687C
:10117000C0698007204602D0FFF7AEFF04E000F010
:101180005FF8204600F05DF8257720680169C943C3
:10119000C90617D4C168C943C90613D46FF010013A
:1011A0000161082020772068C06910F4407F204644
:1011B00002D0FFF791FF04E000F042F8204600F073
:1011C00040F8257720680169C943C90708D1C1687B
:1011D000C943C90704D1891E0161204600F032F8D5
:1011E00020680169C943090609D4C168C9430906D1
:1011F00005D46FF0800101612046FFF76DFE206885
:101200000169C943490609D4C168C943490605D4DF
:101210006FF040010161204600F015F82068016977
:10122000C94389060BD4C168C943890607D46FF046
:10123000200101612046BDE87040FFF74EBE70BD41
:1012400070477047704770477047000070B502687C
:1012500004461068D168536910F00F0F52D003F0A4
:10126000010501F490762E435FD0C20705D0CA0570
:1012700003D5E26B42F00102E263420705D5DA07CB
:1012800003D0E26B42F00202E263820705D5DA077F
:1012900003D0E26B42F00402E263020707D501F0DB
:1012A00020022A4303D0E26B42F00802E263E26BC1
:1012B000002A33D0800604D5880602D5204600F0E7
:1012C00052FB20684069E16BC0F38010090700D42D
:1012D00028B3204600F030FB2068416949061AD542
:1012E000416921F040014161606BA0B11B4901657A
:1012F000606BFFF73EF8002810D0606B016DBDE811
:1013000070400847830610D58B060ED52046BDE8F1
:10131000704000F028BB2046FFF796FF70BD2046C6
:10132000FFF792FF0020E06370BD030606D50B06B1
:1013300004D52046BDE8704000F0F4BB4006F3D56C
:101340004806F1D5D168204621F04001D160202126
:1013500084F8391000F0ECF870BD0000A718000800
:1013600070B5040004D094F83900002510B106E0EF
:10137000012070BD84F83850204600F023F8242066
:1013800084F839002068C16821F40051C16020460A
:1013900000F034FB2068016921F49041016120686C
:1013A000416921F02A0141612068C16841F400517E
:1013B000C160E563202084F8390084F83A000020F9
:1013C00070BD00002DE9F04387B006461421684641
:1013D000FEF730FF30493068884259D12F48002449
:1013E000016841F020010160006800F020000590D4
:1013F0002A481438016841F0040101600068694618
:1014000000F004000590C02000900220CDE9010406
:1014100003200390082004902148FFF72FF9224D64
:1014200020484FF4806887052860C5E90174C5E944
:1014300003486C614FF48039AC61C5E9074928461F
:101440006C62FFF779F808B1FEF791FF7563AE6340
:10145000154D144860357830E5E802074020A5E8CE
:101460001101114845F814496030AC61C5E90749DC
:101470006C62FFF761F808B1FEF779FF356300226F
:1014800011464720AE63FFF749FA4720FFF738FAC5
:1014900007B0BDE8F083000000140140443802406A
:1014A0000008024028640240F80000207047000055
:1014B00070B5044690F83900202830D169B362B382
:1014C00094F8380001282AD0012084F838002162DD
:1014D000A284E2840025E563212084F83900236B8F
:1014E0001048D863236B10481864236B0F48D864E6
:1014F000206B134605652668206B321DFFF786F8C2
:1015000021686FF04000086084F838502068416915
:1015100041F080014161002070BD012070BD0220BA
:1015200070BD0000011900082F190008B718000845
:1015300070477047FEE700001A4808B502680021AE
:1015400042F4800202600068174A00F480000090B4
:101550001648C0E90021802282609200C2605200D9
:10156000C0E9042181610422C161C0E9081203229B
:10157000C0E90A210163FEF7DFFF08B1FEF7F7FEBD
:10158000002211463920FFF7C9F93920FFF7B8F9D1
:10159000002211464520FFF7C1F9BDE8084045206B
:1015A000FFF7AEB930380240106402401800002046
:1015B00030B587B014216846FEF73CFE1148002480
:1015C000016841F080010160016801F0800105912E
:1015D000016841F00401016000680B4D00F0040057
:1015E0000590224603212846FFF724F90121032014
:1015F000CDE90214CDE9000169462846FFF73EF81F
:1016000007B030BD303802400008024010B586B047
:1016100000241748009401940294039404941349FD
:10162000059401605321C0E9011440F2E731C0E99B
:1016300003148461FFF79AFC08B1FEF798FE4FF49B
:101640008050009069460A48FFF7DBFC08B1FEF7BE
:101650008EFE049404A906480594FFF73FFC002879
:1016600001D0FEF784FE06B010BD00000008004067
:10167000780000200C4810B50A4901604FF4E131B0
:101680004160002181600C22C160C0E904128161C7
:10169000C161FFF765FE002803D0BDE81040FEF7EA
:1016A00066BE10BD00140140B8000020FEE7FEE752
:1016B00070477047FFF7CAB830B593B0302168461D
:1016C000FEF7B8FD14210CA8FEF7B4FD1D48002557
:1016D000016841F080510160006800F08050119075
:1016E0001948016841F4804101600068022400F457
:1016F0008040119001200090000401908001CDE90C
:10170000064008AA0420A82182E813000B9068462E
:10171000FFF720FA08B172B6FEE70CA90F2081E8A6
:1017200031004FF4A0500F904FF4805010900521DD
:101730000CA8FFF725F9002801D072B6FEE713B018
:1017400030BD00004038024000700040054801688C
:1017500041F47001016003494FF000608039086076
:101760007047000088ED00E00148FFF7B6BC0000BC
:1017700078000020F0B50268254C264D264E274FF4
:10178000274B4FF0804CA04209D0604507D0A842BB
:1017900005D0B04203D0B84201D0984204D122F023
:1017A000700E4A6842EA0E02A0421BD0604519D072
:1017B000A84217D0B04215D0B84213D0984211D0E9
:1017C000184DA8420ED0184DA8420BD0174DA84274
:1017D00008D0174DA84205D0164DA84202D0164D8C
:1017E000A84203D122F44075CA682A434D6922F009
:1017F00080022A4302608A68C2620A688262A0424A
:1018000001D0984201D10969016301214161F0BD14
:10181000000001400004004000080040000C0040AF
:1018200000040140004001400044014000480140E4
:1018300000180040001C00400020004010B58468E3
:1018400042EA032224F47F440A432243826010BD0B
:10185000826822F070020A4342F0070181607047FB
:1018600010B5036A046A24F001040462846924F058
:10187000F00444EA021423F00A020A43846102627B
:1018800010BD10B5036A23F0100303628369046A74
:1018900023F4704343EA023224F0A00343EA011127
:1018A0008261016210BD10B5806B0021C185C184C9
:1018B000FFF7CAFC10BD70B5846B2068406994F8CE
:1018C0003910C0F3C0100025212904D118B1E584D6
:1018D000204600F03FF82068406994F83A10C0F3C1
:1018E0008010222904D118B1E585204600F024F8A3
:1018F000E06B40F01000E0632046FFF7A5FC70BDF0
:1019000010B50146806B09680968C9050CD400212F
:10191000C18401684A6922F080024A610068C16896
:1019200041F04001C16010BDFFF702FE10BD10B5CF
:10193000806BFFF7FEFD10BD0168CA6822F490724B
:10194000CA6001684A6922F001024A61202180F8D8
:101950003A1070470168CA6822F0C002CA602021AC
:1019600080F83910704710B590F83A10222901D04C
:10197000022010BD8168B1F5805F11D00169002996
:1019800001681FD0496801F07F03816A4A1C8262A6
:101990000B70C18D491E0904090CC18518D02BE0BC
:1019A0000269816A002A0268526805D0D2B20A80B0
:1019B000816A491C8162ECE7C2F308020A80816AED
:1019C000891CF7E74A68816A4B1C83620A70E0E76A
:1019D0000168CA6822F02002CA600168CA6822F45D
:1019E0008072CA6001684A6922F001024A612021BE
:1019F00080F83A10FFF75AFD002010BD2DE9F041A4
:101A0000044600680169E26821F440511143016114
:101A10002169A068E26908436169114308432168AC
:101A2000CA6849F20C639A430243CA60206841695C
:101A3000A26921F4407111434161E06919276425CD
:101A40003226B0F5004F354A354920684FF000087E
:101A500006D0884201D0904236D1FFF73BF835E0FE
:101A6000884201D0904202D1FFF734F801E0FFF73D
:101A700021F861684A18A0FB070148EB0803FEF74C
:101A8000A1FB0146B0FBF5F00201B1FBF5F06FF0F0
:101A90001803584301EB800006EBC000B0FBF5F0E3
:101AA00000F0F80002EB4002B1FBF5F0584301EB07
:101AB000800006EBC000B0FBF5F000F007002168E5
:101AC00010448860BDE8F081FEF7F4FF61688B0F79
:101AD0008A00A0FB0701FEF775FB0146B0FBF5F09D
:101AE0006FF01802504301EB800006EB0010B0FBD2
:101AF000F5F000F0F002B1FBF5F002EB0012B1FBE3
:101B0000F5F06FF01803584301EB800006EB00106E
:101B1000B0FBF5F000F00F00D1E700000014014029
:101B20000010014090F83910212901D0022070479F
:101B30008168B1F5805F016A0BD04A1C02620268BD
:101B400009785160C18C491E0904090CC1840ED06A
:101B500017E009880268C1F3080151600169002992
:101B6000016A02D0491C0162ECE7891CFBE70168AD
:101B7000CA6822F08002CA600068C16841F0400172
:101B8000C1600020704700000148FFF75FBB000004
:101B9000B8000020FEE70907090E002804DB00F169
:101BA000E02080F80014704700F00F0000F1E02002
:101BB00080F8141D704702E008C8121F08C1002AEF
:101BC000FAD170477047002001E001C1121F002ABE
:101BD000FBD17047FEF742FEFFF76EFDFFF7E8FC12
:101BE000FFF7AAFCFFF712FDFFF744FD0748FFF7D8
:101BF000F7F907480068C16841F01001C160054C61
:101C0000012203482178FFF753FCF9E77800002010
:101C1000B800002000000020000610160006101674
:101C2000000000000000000001020304060708098C
:101C30000000000001020304581C000800000020FE
:101C400018000000B61B0008701C000818000020D7
:101C5000A0050000C61B00080001020304000000EC
:101C60000100000010000000000000000024F4004B
:040000050800018965
:00000001FF
