:020000040800F2
:1000000038050020A1010008171A0008F51700089C
:10001000151A0008AD020008E51F000800000000E6
:100020000000000000000000000000001B1A000893
:100030004503000800000000191A00081D1A0008F6
:10004000BB010008BB010008BB010008BB010008A0
:10005000BB010008BB010008BB010008BB01000890
:10006000BB010008BB010008BB010008BB01000880
:10007000BB010008BB010008BB010008BB01000870
:10008000BB010008BB010008BB010008BB01000860
:10009000B1020008BB010008BB010008BB01000859
:1000A000BB010008BB010008BB010008BB01000840
:1000B000BB010008BB010008BB010008BB01000830
:1000C000BB010008BB010008BB010008BB01000820
:1000D000BB010008D91F0008BB010008BB010008D4
:1000E000BB010008BB010008BB010008BB01000800
:1000F000BB010008BB010008BB010008BB010008F0
:10010000BB010008BB010008BB010008BB010008DF
:10011000BB010008BB010008BB010008BB010008CF
:10012000BB010008BB010008BD020008BB010008BC
:10013000BB0100080000000000000000BB01000837
:10014000BB010008BB010008BB010008BB0100089F
:10015000BB010008BB010008BB010008BB0100088F
:10016000BB010008BB010008BB010008BB0100087F
:10017000BB010008BB0100080000000000000000F7
:10018000BB010008BB010008DFF810D000F07CF8CC
:100190000048004771200008AFF3008038050020B8
:1001A0000648804706480047FEE7FEE7FEE7FEE711
:1001B000FEE7FEE7FEE7FEE7FEE7FEE7B91A000806
:1001C000890100082DE9F05F0546002092469B4614
:1001D00088460646814640241BE02846414647465D
:1001E000224600F041F853465A46C01A914110D3B6
:1001F00011461846224600F028F82D1A67EB010830
:100200004F4622460120002100F01FF817EB00099D
:100210004E41201EA4F10104DFDC484631462A4647
:100220004346BDE8F09FD2B201E000F8012B491E21
:10023000FBD270470022F6E710B513460A46044683
:100240001946FFF7F0FF204610BD202A04DB203AB4
:1002500000FA02F1002070479140C2F1200320FA19
:1002600003F3194390407047202A04DB203A21FA17
:1002700002F00021704721FA02F3D040C2F12002BF
:100280009140084319467047064C074D06E0E06868
:1002900040F0010394E8070098471034AC42F6D3CD
:1002A000FFF776FF5421000874210008FEE70000E4
:1002B000014800F06EB8000020000020014800F066
:1002C0004FBA0000D400002001681823CAB2103AC7
:1002D000B2FBF3F2054B6FF30901032A9B5CC36584
:1002E00000D9091D816508467047000034210008C7
:1002F00010B5014600208B698A6A4FF0C07453B173
:10030000B3F5005F15D072B1012A0CD0022A0AD0D1
:10031000032A09D104E01AB1012A06D0022A03D126
:10032000C96AC90100D5012010BDC96AA142FAD02D
:1003300010BD002AF7D0012AF2D0022AF3D0032AF6
:10034000F3D010BD704772B6FEE7000030B54FF035
:10035000E02100220A618C690C4B40F271251B7868
:1003600013FB05F5C4EB851400EE104A4FF47A74C4
:10037000F8EE400A13FB04F300EE103AB8EE400A20
:1003800080EE801A80ED001A8A6130BD0C000020DA
:1003900070472DE9F05F0546006800244669D0F8F3
:1003A00004908768D0F80CB0D0F810A0D0F818806E
:1003B000F10748D0F90714D001218160B80703D5AF
:1003C000284600F0B5F90CE0780702D54FF4006438
:1003D00007E0380702D54FF4805402E0284600F0C9
:1003E000A6F9F80516D529684FF480708860B8051D
:1003F00003D5284600F09EF90CE0780502D544F4B8
:10040000005407E0380502D544F4804402E0284651
:1004100000F08FF9F80316D529684FF48030886012
:10042000B80303D5284600F087F90CE0780302D51D
:1004300044F4004407E0380302D544F4803402E079
:10044000284600F078F9300707D55FEACB6004D57D
:100450002968102044F40074C86070074FF0080742
:1004600007D55FEA0B7004D52868C760284600F0FE
:1004700059F9B00706D52868C068800702D0284619
:1004800000F051F9700607D55FEACA6004D5296803
:10049000102044F480640861B00607D55FEA0A7052
:1004A00004D528680761284600F03EF9F00606D515
:1004B00028680069800702D0284600F036F9B003AA
:1004C00008D55FEAC96005D529681020486028462C
:1004D00000F02CF9F00307D55FEA097004D528680D
:1004E0004760284600F029F9300446D55FEA497094
:1004F00040D5F00504D55FEAC87001D044F001048E
:10050000B00504D55FEA887001D544F00204700597
:1005100004D55FEA487001D544F00404300529D5BC
:1005200018F0700F26D008F07000402815D006DCB7
:10053000102809D020280AD0302816D10AE05028E7
:100540000ED0602811D10EE044F008040DE044F014
:1005500010040AE044F0200407E044F0400404E002
:1005600044F0800401E044F480742868816921F03B
:1005700070018161296804204860002C05D0686AF8
:10058000204368622846FFF703FFBDE8F09F70B57F
:10059000040003D094F8200010B104E0012070BDE5
:1005A000204600F081F82068016821F00201016016
:1005B00000F0F6FA0546052604E000F0F1FA401BCB
:1005C0000A2811D8206840688007F6D4206801689E
:1005D00041F00101016000F0E3FA05460BE000F094
:1005E000DFFA401B0A2806D9606A40F400306062D6
:1005F00084F82060D2E720684068C007EFD0207EF2
:100600000128206801683DD021F080010160607EF2
:1006100001282068016838D021F040010160A07EE7
:1006200001282068016833D021F020010160E07EBC
:100630000128206801682ED041F010010160207F60
:1006400001282068016829D021F008010160607F3D
:1006500001282068016824D021F004010160D4E958
:1006600002010843D4E90412114308436168491E9A
:1006700008432168C86100206062012084F82000DE
:10068000002070BD41F08001C0E741F04001C5E7A6
:1006900041F02001CAE721F01001CFE741F0080145
:1006A000D4E741F00401D9E710B586B0044614211F
:1006B0006846FFF7BFFD18492068884229D11748CE
:1006C0000021026842F000720260006800F00070D1
:1006D000059012481038026842F00102026000687A
:1006E00000F0010005904FF4C05000900220CDE9C9
:1006F000010103200390092004906946084800F096
:1007000069F900220121142000F0E2FA142000F01F
:10071000D1FA06B010BD000000640040403802402D
:10072000000002407047704770477047704770473D
:1007300070477047704770477047704790F83510A2
:10074000022903D08021416501207047052180F8EE
:1007500035100068016821F0010101600020704738
:100760002DE9F84304464FF00009CDF800906348A6
:100770004FF41651A56D0068B0FBF1F72E6894F8A0
:100780005C10082000FA01F131420FD021680A689C
:1007900052070BD50A6822F004020A6094F85C1034
:1007A0008840A860606D40F00100606594F85C10BE
:1007B0004FF0010808FA01F0304208D02168496979
:1007C000090604D5A860606D40F00200606594F8E9
:1007D0005C1004208840304208D0216809688907ED
:1007E00004D5A860606D40F00400606594F85C106A
:1007F00010208840304218D021680968090714D5B4
:10080000A86020680168490304D50068000308D582
:10081000A16C07E00168C90503D4016821F0080153
:100820000160216C09B12046884794F85C102020B3
:100830008840304231D021680968C9062DD5A860AA
:1008400094F8350005282068016806D0490347D58B
:10085000006800031DD4616C1CE021F016010160EA
:100860002068416921F080014161206C08B9A06CC9
:1008700020B12068016821F00801016094F85C1043
:100880003F208840A86084F8349084F83580216D3A
:100890001FE0E16B09B120468847606D00282BD02E
:1008A000606DC00714D0052084F835002068016809
:1008B00021F0010101600098401C0090B84203D86B
:1008C00020680068C007F6D184F8349084F8358039
:1008D000E16C002910D001B02046BDE8F043084784
:1008E0000168C905D5D4016821F01001016084F8C0
:1008F000349084F83580CCE7BDE8F8831C000020F4
:100900002DE9F041044600F04BF906465CB10025A4
:1009100084F83450022084F835002068016821F002
:10092000010101600DE00120BDE8F08100F038F91F
:10093000801B052805D920206065032084F8350038
:10094000F2E720680068C007F0D1226811682048EB
:100950000140D4E901031843D4E903363343184373
:1009600063691843A3691843E3691843236A18436A
:100970000843616A042903D1D4E90B1319430843DE
:10098000106020684069666A20F0070130460E4317
:10099000012704280CD1A06A0643E06A40B1204632
:1009A000FFF7A6FC20B14020606584F83570BAE7F7
:1009B000206846612046FFF787FC94F85C203F21C1
:1009C00091408160656584F835700020ACE70000D7
:1009D0003F8010F02DE9F84F00224FF00108032569
:1009E0004FF00F0E0B6808FA02F42340A3426ED1B9
:1009F0004E68012E05D0022E03D0112E01D0122EEA
:100A000012D186684FEA420C05FA0CF7BE43CF6854
:100A100007FA0CF7374387604668A6430C79C4F39E
:100A20000014944034434460C668570005FA07FC3C
:100A30008C6826EA0C06BC403443C4604C68022C27
:100A400001D0122C13D1D40800EB8404A346D4F8AF
:100A5000209054074FEAD46A0EFA0AF629EA0609EA
:100A60000E6906FA0AF646EA0906CBF8206006681F
:100A70000C7926EA0C0604F00304BC4034430460FD
:100A80004C68E40065D5364C266846F480462660FE
:100A9000246822F0030604F480440094314C34446A
:100AA000A446D4F808489607370F0EFA07F6B44361
:100AB0002D4EB04201D1002624E02C4EB04201D18F
:100AC00001261FE02A4EB04202D102261AE040E081
:100AD000284EB04201D1032614E0274EB04201D186
:100AE00004260FE0254EB04201D105260AE0244E2F
:100AF000B04201D1062605E0224EB04201D10726C0
:100B000000E00826BE402643CCF808681E4E346834
:100B10004F689C43FF0300D51C4334601A4C241DCE
:100B200026684F689E43BF0300D51E432660164EBD
:100B3000083634684F689C43FF0200D51C4334607C
:100B4000114E0C3634684F689C43BF0200D51C43DD
:100B50003460521C102AFFF445AFBDE8F88F000046
:100B600044380240003001400000024000040240CE
:100B700000080240000C0240001002400014024035
:100B800000180240001C0240003C0140006908407F
:100B900000D0012070470AB1816170470904FBE76A
:100BA00001488068704700001000002070B5040004
:100BB00011D021684CF6CC400860216845F25550B0
:100BC0000860D4E9000141602168A0688860FFF7EF
:100BD000E7FF054609E0012070BD00BFFFF7E0FF19
:100BE000401B302801D9032070BD2068C068002850
:100BF000F4D121684AF6AA200860002070BD0000E8
:100C0000024881680278114481607047100000201A
:100C10000B4810B5016841F400710160016841F4AE
:100C200080610160016841F480710160032000F07F
:100C30006FF8002000F006F800F024F8002010BD46
:100C4000003C024070B50D4D04464FF47A7128788F
:100C5000B1FBF0F00A490968B1FBF0F000F00EFBBF
:100C600048B9102C07D200222146501E00F030F85F
:100C700000206C6070BD012070BD000010000020DD
:100C80001C0000200A4808B5016841F48041016059
:100C9000006800F4804000900548001F016841F0A2
:100CA00080510160006800F08050009008BD000095
:100CB00044380240002809DB00F01F020121914066
:100CC0004009800000F1E020C0F8001170470000EA
:100CD000F0B40E4B1B680C46C3F30223C3F10705A7
:100CE000042D00D90425191D072901D2002300E095
:100CF000DB1E012606FA05F1491E214099409E405F
:100D0000761E16403143F0BC01F06DB90CED00E0E9
:100D1000064900F0070208684FF6FF03184040EA52
:100D20000220034A10430860704700000CED00E009
:100D30000000FA052DE9F0470E46050065D0DFF802
:100D40001481D8F80000F7B200F00F00B04207D2CB
:100D500088F80070D8F8000000F00F00B04254D1BD
:100D600028683D4C810712D5400703D5206840F420
:100D7000E05020602878000703D5206840F46040E8
:100D800020602068A96820F0F000084320602878DF
:100D9000C0072DD0304968680839012812D00228D0
:100DA00013D0032811D00968890700292DDA21689A
:100DB00021F0030101432160FFF7F2FE814641F279
:100DC000883A0EE009688903EFE709688901ECE7D2
:100DD000FFF7E6FEA0EB0901514502D90320BDE86B
:100DE000F0872068696800F00C00B0EB810FEFD14C
:100DF000D8F80010404601F00F01B14207D9077042
:100E0000006800F00F00B04201D00120E7E7287829
:100E1000400705D52068E96820F4E05008432060C9
:100E20002878000706D52068296920F4604040EA48
:100E3000C100206000F038F82168084AC1F30311AE
:100E4000515CC8400649086006480068FFF7FAFE92
:100E50000020C4E7003C0240083802403C21000862
:100E60001C0000201400002004480549006809689F
:100E7000044AC1F38221515CC84070471C00002025
:100E8000083802404C2100080448054900680968F8
:100E9000044AC1F34231515CC84070471C00002035
:100EA000083802404C210008154810B5006810F0C1
:100EB0000C02144813D04110042A0FD0082A0ED176
:100EC0000F4C241F2268236802F03F025B0207D503
:100ED0002068C0F38810A0FB010106E0084610BDA1
:100EE0002168C1F38811A1FB00010023FFF76AF913
:100EF0002168C1F30141491C4900B0FBF1F010BD6C
:100F0000083802400024F4002DE9F84F04006ED0A8
:100F10002078DFF83C93C007A9F104054AD009F115
:100F200004000168C1F38101012908D00068C0F301
:100F3000810002280AD1D9F80000400206D52868AD
:100F4000800337D560680028E1D033E06068B0F5F1
:100F5000803F10D0B0F5A02F286810D020F480304A
:100F60002860286820F4802028606068A8B1FFF716
:100F700017FE06460DE0286840F48030F4E740F4A0
:100F800080202860F7E700BFFFF70AFE801B642877
:100F900073D828688003F7D50CE0FFF701FE0646FA
:100FA00005E000BFFFF7FCFD801B6428F0D828682F
:100FB0008003F7D42078DFF89C8280074FF0000A86
:100FC0003ED5A348001D016811F00C0F08D0006841
:100FD000C0F3810002280BD1D9F80000400207D4E9
:100FE0002868800716D5E068012800D112E02BE1BF
:100FF000E068B8B10120C8F80000FFF7D1FD06464F
:1010000005E000BFFFF7CCFD801B0228C0D8286890
:101010008007F7D52868216920F0F80040EAC10070
:1010200028600DE0C8F800A0FFF7BAFD064604E00E
:10103000FFF7B6FD801B02281FD828688007F7D469
:101040002078000722D5824E83486169703671B1DD
:1010500001210160FFF7A4FD074604E0FFF7A0FDB2
:10106000C01B022809D830688007F7D50EE0C0F809
:1010700000A0FFF795FD074605E082E0FFF790FD31
:10108000C01B02287DD830688007F7D4207840073D
:1010900068D5DFF8BCB100270BF13C0BDBF8000092
:1010A000C0000BD4DBF8001041F08051CBF80010E9
:1010B000DBF80000012700F080500090674E306898
:1010C000C00510D4306840F480703060FFF768FDD0
:1010D000009005E0FFF764FD0099401A022850D8FF
:1010E0003068C005F6D55A4EA0686C3601280FD07E
:1010F0000528306810D020F001003060306820F002
:1011000004003060A068B8B1FFF74AFD00900FE01E
:10111000306840F00100F4E740F004003060F7E789
:10112000FFF73EFD0099411A41F28830814266D8AE
:1011300030688007F4D50EE0FFF732FD009007E03D
:10114000FFF72EFD0099411A41F28830814256D8AE
:1011500030688007F4D42FB1DBF8001021F0805103
:10116000CBF80010A069C8B33949091D0968C1F35B
:10117000810102294AD00228504607D0C8F86000F1
:1011800000E03CE0FFF70CFD04463BE04746C8F8B2
:101190006000FFF705FD064605E000BFFFF700FD14
:1011A000801B02282BD828688001F7D4D4E90701D6
:1011B0000843A16A2A4A490802EB0141626A41EAEE
:1011C0008211084394F82C1040EA0161C9F800101C
:1011D00001203866FFF7E4FC044606E036E000BF75
:1011E000FFF7DEFC001B022809D828688001F7D52C
:1011F0002CE000BFFFF7D4FC001B022802D903201B
:10120000BDE8F88F28688001F4D41FE00128F7D0EA
:10121000D9F80000E26900F48001914214D1226AF9
:1012200000F03F0191420FD147F6C071626A014060
:10123000914209D1A26A00F44031914204D1E16A9D
:1012400000F07060884201D00120D9E70020D7E784
:101250000438024000004742800E474200700040C0
:101260000000FFFF4FF0E0210428086903D020F0C0
:1012700004000861704740F00400FAE710B5401E12
:10128000B0F1807F01D3012010BD4FF0E0246061F8
:101290000F21601700F0A7FE0020A0610720206149
:1012A000002010BD70B590F83C20012A32D00124F6
:1012B00080F83C40022280F83D2003685A689D680F
:1012C00022F070060A6832435A60134B02689A4251
:1012D00014D0B2F1804F11D0104B9A420ED0104B67
:1012E0009A420BD00F4B9A4208D00F4B9A4205D02E
:1012F0000E4B9A4202D00E4B9A4204D1496825F017
:1013000080031943916080F83D40002180F83C1033
:10131000084670BD022070BD00000140000400407E
:1013200000080040000C0040000401400040014063
:101330000018004010B5040003D094F83D0010B12F
:1013400007E0012010BD002084F83C00204600F09A
:101350000DF8022084F83D00211D206800F0BAFB42
:10136000012084F83D00002010BD000008B5006891
:10137000B0F1804F08D10548016841F001010160DA
:10138000006800F00100009008BD000040380240F5
:1013900070B5044690F83C00012817D0012584F868
:1013A0003C50022084F83D002068826822F07702D9
:1013B00022F47F4282600868502830D00DDC20285B
:1013C0004DD005DC98B310283BD148E0022070BD19
:1013D000302844D0402834D139E0602828D0702803
:1013E00006D0B0F5805F2CD0B0F5005F29D10AE0BF
:1013F000CB68D1E90121206800F0D0FB206881682A
:1014000041F0770109E0CB68D1E90121206800F0C3
:10141000C5FB2068816841F48041816011E0CA68A1
:101420004968206800F08EFC5021206807E016E033
:10143000CA684968206800F096FC6021206800F0C6
:10144000B7FB84F83D50002084F83C0070BDCA68AA
:101450004968206800F076FC40212068EFE72268A8
:1014600001461046EBE7000010B586B00446142193
:101470006846FEF7DFFE2068B0F1804F15D10C48BA
:101480000021026842F001020260006800F00100E1
:101490000590202000900220CDE901010120CDE936
:1014A000031069460348FFF795FA06B010BD000027
:1014B000303802400000024070B5044690F83C000D
:1014C0000D4601280DD0012684F83C60022084F8E6
:1014D0003D0042B1042A18D0082A2AD00C2A4DD146
:1014E00039E0022070BD206800F06AFB2068816945
:1014F00041F0080181612068816921F00401816166
:10150000206881692A69114311E0206800F088FB96
:101510002068816941F4006181612068816921F45A
:1015200080618161206881692A6941EA02218161C3
:1015300024E0206800F0AAFB2068C16941F008019E
:10154000C1612068C16921F00401C1612068C169DD
:101550002A69114311E0206800F0CCFB2068C169C2
:1015600041F40061C1612068C16921F48061C161F9
:101570002068C1692A6941EA0221C16184F83D609D
:10158000002084F83C0070BD10B5040003D094F82E
:101590003D0010B107E0012010BD002084F83C00A0
:1015A000204600F00CF8022084F83D00211D206840
:1015B00000F090FA012084F83D00002010BD704733
:1015C0007047000070B5026804461068D16853691E
:1015D00010F00F0F52D003F0010501F490762E4366
:1015E0005FD0C20705D0CA0503D5E26B42F0010205
:1015F000E263420705D5DA0703D0E26B42F002024C
:10160000E263820705D5DA0703D0E26B42F00402F9
:10161000E263020707D501F020022A4303D0E26B00
:1016200042F00802E263E26B002A33D0800604D560
:10163000880602D5204600F0BEFB20684069E16BB9
:10164000C0F38010090700D428B3204600F0A5FBA2
:101650002068416949061AD5416921F0400141617C
:10166000606BA0B11B490165606BFFF767F800284C
:1016700010D0606B016DBDE870400847830610D53F
:101680008B060ED52046BDE8704000F094BB204686
:10169000FFF796FF70BD2046FFF792FF0020E06342
:1016A00070BD030606D50B0604D52046BDE8704084
:1016B00000F060BC4006F3D54806F1D5D16820465D
:1016C00021F04001D160202184F8391000F091F818
:1016D00070BD00008B1D000870B5040004D094F8A4
:1016E0003900002510B106E0012070BD84F83850A3
:1016F000204600F023F8242084F839002068C168CF
:1017000021F40051C160204600F0A0FB206801696F
:1017100021F4904101612068416921F02A01416171
:101720002068C16841F40051C160E563202084F85D
:10173000390084F83A00002070BD000070B586B012
:10174000064614216846FEF775FD24493068884234
:1017500042D123480025016841F010010160006872
:1017600000F0100005901E481438016841F0010196
:1017700001600068694600F0010005904FF4C06008
:1017800000900220CDE9010503200390072004907A
:101790001448FFF71FF9154C134820604FF0006004
:1017A000C4E901054014C4E9035065614FF44030B9
:1017B000A561C4E9075020466562FFF7A1F808B1AA
:1017C000FEF7C1FD7463002211462520A663FFF7D2
:1017D0007FFA2520FFF76EFA06B070BD00100140B9
:1017E000443802400000024040640240D40000201F
:1017F00070477047FEE70000104810B50E490160C1
:101800000621416000214FF400328160C0E90312DB
:101810004FF4401242610176417681760122C27610
:1018200001774177FEF7B3FE002803D0BDE81040F2
:10183000FEF789BD10BD00000064004020000020BC
:10184000094808B5016841F4800101600068002280
:1018500000F48000009011463A20FFF739FABDE805
:1018600008403A20FFF726BA3038024070B586B0FB
:1018700014216846FEF7DEFC21480025016841F08E
:1018800080010160016801F080010591016841F06B
:1018900004010160016801F004010591016841F053
:1018A00001010160016801F001010591016841F049
:1018B000020101600068134E00F002000590002252
:1018C00003213046FFF767F903200090012402212D
:1018D000CDE90141039169463046FFF77BF8CDE938
:1018E0000045694608480294FFF774F8CDE90045C1
:1018F000694606480294FFF76DF806B070BD000017
:10190000303802400008024000000240000402405B
:10191000094810B5074901600021416040F6FF7198
:101920008160FFF743F9002803D0BDE81040FEF7BF
:101930000ABD10BD003000404800002010B58EB038
:1019400000240794089409940A940B941C21684677
:101950000C94FEF76FFC1E484FF08041016053214C
:10196000C0E9011440F2E731C0E90314802181612C
:10197000FFF7E0FC08B1FEF7E6FC4FF4805007905B
:1019800007A91348FFF704FD08B1FEF7DCFC104877
:10199000FFF7FAFD08B1FEF7D6FC0B940BA90C4833
:1019A0000C94FFF77FFC08B1FEF7CDFC6020CDE979
:1019B000000402940022694605480494FFF77CFD68
:1019C00008B1FEF7C0FC0248FFF74EFD0EB010BD97
:1019D000540000200D4810B50B4901600C494160CE
:1019E00000214FF480628160C0E903120422C0E943
:1019F0000521C161FFF770FE002803D0BDE810404B
:101A0000FEF7A1BC10BD00000010014094000020B2
:101A1000A0860100FEE7FEE770477047FFF7F0B8C9
:101A200030B593B030216846FEF704FC14210CA8B1
:101A3000FEF700FC1E480025016841F0805101605E
:101A4000006800F0805011901A48016841F480410C
:101A500001600068022400F4804011900920009089
:101A60004FF4803001900120CDE9050480050790F6
:101A700008AA0420A82182E813000B906846FFF70B
:101A800043FA08B172B6FEE70CA90F2081E83100D5
:101A90004FF4A0500F904FF48050109005210CA8E7
:101AA000FFF748F9002801D072B6FEE713B030BD49
:101AB00040380240007000400548016841F4700160
:101AC000016003494FF000608039086070470000F2
:101AD00088ED00E0F0B50268254C264D264E274FD4
:101AE000274B4FF0804CA04209D0604507D0A84258
:101AF00005D0B04203D0B84201D0984204D122F0C0
:101B0000700E4A6842EA0E02A0421BD0604519D00E
:101B1000A84217D0B04215D0B84213D0984211D085
:101B2000184DA8420ED0184DA8420BD0174DA84210
:101B300008D0174DA84205D0164DA84202D0164D28
:101B4000A84203D122F44075CA682A434D6922F0A5
:101B500080022A4302608A68C2620A688262A042E6
:101B600001D0984201D10969016301214161F0BDB1
:101B7000000001400004004000080040000C00404C
:101B80000004014000400140004401400048014081
:101B900000180040001C00400020004010B5846880
:101BA00042EA032224F47F440A432243826010BDA8
:101BB000826822F070020A4342F007018160704798
:101BC000F0B5026A22F001020262036A4268846987
:101BD000124E24F073050C682C4323F002058B6829
:101BE0002B430D4DA84201D0B04205D123F0080788
:101BF000CB683B4323F00403A84201D0B04205D197
:101C00004D6922F4407215438A692A434260846117
:101C1000496841630362F0BD0000014000040140D7
:101C2000F0B5026A22F010020262026A4368846917
:101C30000D6824F4E64444EA05248D6822F020026D
:101C400042EA05120F4D104EA84201D0B04206D113
:101C5000CF6822F0800242EA071222F04002A84236
:101C600001D0B04207D14D6923F4406343EA8503B4
:101C70008D6943EA85034360846149688163026238
:101C8000F0BD00000000014000040140F0B5026A10
:101C900022F480720262026A4368C46922F400720C
:101CA00024F073050C68124E2C438D6842EA05221D
:101CB0000E4DA84201D0B04206D1CF6822F4006296
:101CC00042EA072222F48062A84201D0B04207D142
:101CD0004D6923F4405343EA05138D6943EA051324
:101CE0004360C4614968C1630262F0BD0000014005
:101CF0000004014030B5026A22F480520262046A94
:101D00004268C3690D6823F4E64343EA05238D68FE
:101D100024F4005444EA0534084DA84202D0084D8A
:101D2000A84204D14D6922F4804242EA8512426001
:101D3000C36149680164046230BD000000000140D5
:101D40000004014010B5036A046A24F0010404622F
:101D5000846924F0F00444EA021423F00A020A43DE
:101D60008461026210BD10B5036A23F010030362A0
:101D70008369046A23F4704343EA023224F0A00327
:101D800043EA01118261016210BD10B5806B002130
:101D9000C185C184FFF714FC10BD0168CA6822F434
:101DA0009072CA6001684A6922F001024A612021EA
:101DB00080F83A10704710B590F83A10222901D0F7
:101DC000022010BD8168B1F5805F11D00169002942
:101DD00001681FD0496801F07F03816A4A1C826252
:101DE0000B70C18D491E0904090CC18518D02BE068
:101DF0000269816A002A0268526805D0D2B20A805C
:101E0000816A491C8162ECE7C2F308020A80816A98
:101E1000891CF7E74A68816A4B1C83620A70E0E715
:101E20000168CA6822F02002CA600168CA6822F408
:101E30008072CA6001684A6922F001024A61202169
:101E400080F83A10FFF7D4FC002010BD2DE9F041D6
:101E5000044600680169E26821F4405111430161C0
:101E60002169A068E2690843616911430843216858
:101E7000CA6849F20C639A430243CA602068416908
:101E8000A26921F4407111434161E0691927642579
:101E90003226B0F5004F354A354920684FF000082A
:101EA00006D0884201D0904236D1FEF7EDFF35E0F2
:101EB000884201D0904202D1FEF7E6FF01E0FEF732
:101EC000D3FF61684A18A0FB070148EB0803FEF73F
:101ED00079F90146B0FBF5F00201B1FBF5F06FF0C6
:101EE0001803584301EB800006EBC000B0FBF5F08F
:101EF00000F0F80002EB4002B1FBF5F0584301EBB3
:101F0000800006EBC000B0FBF5F000F00700216890
:101F100010448860BDE8F081FEF7A6FF61688B0F72
:101F20008A00A0FB0701FEF74DF90146B0FBF5F072
:101F30006FF01802504301EB800006EB0010B0FB7D
:101F4000F5F000F0F002B1FBF5F002EB0012B1FB8E
:101F5000F5F06FF01803584301EB800006EB00101A
:101F6000B0FBF5F000F00F00D1E7000000140140D5
:101F70000010014090F83910212901D0022070474B
:101F80008168B1F5805F016A0BD04A1C0262026869
:101F900009785160C18C491E0904090CC1840ED016
:101FA00017E009880268C1F308015160016900293E
:101FB000016A02D0491C0162ECE7891CFBE7016859
:101FC000CA6822F08002CA600068C16841F040011E
:101FD000C1600020704700000148FFF7F3BA00001D
:101FE00094000020FEE70907090E002804DB00F139
:101FF000E02080F80014704700F00F0000F1E020AE
:1020000080F8141D704702E008C8121F08C1002A9A
:10201000FAD170477047002001E001C1121F002A69
:10202000FBD1704710B504460020FFF71BF90648A6
:10203000E10801EB41020170C2EBC1114FF6FF72E2
:1020400002EAC101418010BD0C0000204FF0E020E9
:102050000649416100218161012202610269D307C1
:1020600001D0D203FAD50161816170473F9002002F
:102070002DED028BFEF7CCFDFFF7D2FCFFF7F6FB50
:10208000FFF7DEFBFFF7B8FBFFF758FCFFF7A2FCFA
:10209000FFF73EFC4820FFF7C5FF4FF4FA70FFF74B
:1020A000D5FF194D194C01212846FEF76FFD002878
:1020B000F9D141F658369FED168AA088B042FCD27D
:1020C00001212846FEF762FD0028F9D000F022F831
:1020D00001212846FEF75AFD0028F9D10B480830A7
:1020E000FEF734F994ED020A20EE080ABCEEC00AAD
:1020F00010EE100A0004000C208001D0A080DCE764
:102100006088401C6080D8E700000240000000208A
:102110000000C8424FF0E02000210161044949F667
:10212000404209785143416101210161704700003B
:102130000C0000200006101600061016000000001B
:102140000000000001020304060708090000000067
:102150000102030474210008000000202000000098
:102160000620000894210008200000201805000027
:102170001620000800000000000000000000000021
:10218000010000000100000010000000000000003D
:042190000024F40033
:040000050800018965
:00000001FF
