:020000040800F2
:1000000008050020A10100083F100008870F000824
:100010003D10000891040008E912000800000000EB
:100020000000000000000000000000004310000875
:100030009304000800000000411000081911000896
:10004000BB010008BB010008BB010008BB010008A0
:10005000BB010008BB010008BB010008BB01000890
:10006000BB010008BB010008BB010008BB01000880
:10007000BB010008BB010008BB010008BB01000870
:10008000BB010008BB010008BB010008BB01000860
:10009000BB010008BB010008BB010008BB01000850
:1000A000BB010008BB010008BB010008BB01000840
:1000B000BB010008BB010008BB010008BB01000830
:1000C000BB010008BB010008BB010008BB01000820
:1000D000BB010008BB010008BB010008BB01000810
:1000E000BB010008BB010008BB010008BB01000800
:1000F000BB010008BB010008BB010008BB010008F0
:10010000BB010008BB010008BB010008BB010008DF
:10011000BB010008BB010008C5110008BB010008B5
:10012000BB010008BB010008BB010008BB010008BF
:10013000BB0100080000000000000000BB01000837
:10014000BB010008BB010008BB010008BB0100089F
:10015000BB010008BB010008BB010008BB0100088F
:10016000BB010008BB010008BB010008BB0100087F
:10017000BB010008BB0100080000000000000000F7
:10018000BB010008BB010008DFF810D000F06EF9D9
:100190000048004729130008AFF30080080500203D
:1001A0000648804706480047FEE7FEE7FEE7FEE711
:1001B000FEE7FEE7FEE7FEE7FEE7FEE7A91100081F
:1001C000890100082DE9F05F0546002092469B4614
:1001D00088460646814640241BE02846414647465D
:1001E000224600F0D6F853465A46C01A914110D321
:1001F00011461846224600F0BDF82D1A67EB01089B
:100200004F4622460120002100F0B4F817EB000908
:100210004E41201EA4F10104DFDC484631462A4647
:100220004346BDE8F09FD2B201E000F8012B491E21
:10023000FBD270470022F6E710B513460A46044683
:100240001946FFF7F0FF204610BD2DE9F04D81EA79
:10025000030404F0004B21F0004514464FF0000A5F
:1002600023F0004150EA050220D054EA01021DD0DB
:10027000C5F30A570246C5F31303C1F31300C1F3D4
:100280000A5640F4801543F48013A7EB0608101BB0
:10029000D64608F2FD3873EB050002D308F10108D9
:1002A00001E092185B41B8F1000F03DA002001462B
:1002B000BDE8F08D00204FF48011064684460EE024
:1002C000171B73EB050705D3121B63EB05030643EE
:1002D0004CEA010C49084FEA300092185B4150EAA1
:1002E0000107EDD152EA030012D082EA040083EA4A
:1002F0000501084305D0101BAB4106D201220023A3
:1003000006E000224FF0004302E06FF001025310BC
:100310001AEB06004CEB085110EB0A0041EB0B0105
:10032000BDE8F04D00F045B80EB540F23341029102
:100330000021CDE900110A460B4600F049F803B050
:1003400000BDC1F30A5210B5C1F3130140F2FF33EF
:1003500041F480119A4201DA002010BD40F233438B
:100360009A42A2F2334203DC524200F012F810BD6E
:10037000904010BD202A04DB203A00FA02F1002050
:1003800070479140C2F1200320FA03F319439040D3
:100390007047202A04DB203A21FA02F0002170473E
:1003A00021FA02F3D040C2F12002914008431946DD
:1003B000704710B5141E73F1000408DA401C41F1B7
:1003C000000192185B411A4301D120F0010010BDD9
:1003D0002DE9F04D92469B4611B1B1FA81F202E04F
:1003E000B0FA80F220329046FFF7C4FF04460F4671
:1003F00040EA0A0041EA0B0153465A46084313D02B
:10040000114653EA010019D0C8F140025046FFF7E7
:10041000C0FF05460E46504659464246FFF7AAFF22
:10042000084305D0012004E020463946BDE8F08DA0
:100430000020054346EAE0762C4337430A986305DB
:10044000E40AA0EB08000022FD0A44EA47540A30FF
:1004500002D500200146E9E7010510196941DDE9EF
:10046000084500196941BDE8F04DA2E7064C074D6B
:1004700006E0E06840F0010394E807009847103474
:10048000AC42F6D3FFF784FE1014000830140008C5
:10049000FEE7704772B6FEE72DE9F84F00224FF0F5
:1004A000010803254FF00F0E0B6808FA02F42340F1
:1004B000A3426ED14E68012E05D0022E03D0112E1C
:1004C00001D0122E12D186684FEA420C05FA0CF7C1
:1004D000BE43CF6807FA0CF7374387604668A643E8
:1004E0000C79C4F30014944034434460C668570048
:1004F00005FA07FC8C6826EA0C06BC403443C4604D
:100500004C68022C01D0122C13D1D40800EB8404C7
:10051000A346D4F8209054074FEAD46A0EFA0AF69C
:1005200029EA06090E6906FA0AF646EA0906CBF830
:10053000206006680C7926EA0C0604F00304BC402F
:10054000344304604C68E40065D5364C266846F4B4
:1005500080462660246822F0030604F48044009458
:10056000314C3444A446D4F808489607370F0EFAA5
:1005700007F6B4432D4EB04201D1002624E02C4EA4
:10058000B04201D101261FE02A4EB04202D102261C
:100590001AE040E0284EB04201D1032614E0274E75
:1005A000B04201D104260FE0254EB04201D105260C
:1005B0000AE0244EB04201D1062605E0224EB042A8
:1005C00001D1072600E00826BE402643CCF8086883
:1005D0001E4E34684F689C43FF0300D51C433460B3
:1005E0001A4C241D26684F689E43BF0300D51E4346
:1005F0002660164E083634684F689C43FF0200D5CB
:100600001C433460114E0C3634684F689C43BF0263
:1006100000D51C433460521C102AFFF445AFBDE8DE
:10062000F88F0000443802400030014000000240D2
:100630000004024000080240000C0240001002408A
:100640000014024000180240001C0240003C01401F
:10065000426931EA020200D10904816170470AB19E
:10066000816170470904FBE701488068704700001A
:100670000C000020024881680278114481607047B4
:100680000C0000200B4810B5016841F400710160B6
:10069000016841F480610160016841F4807101608A
:1006A000032000F06FF8002000F006F800F024F8B6
:1006B000002010BD003C024070B50D4D04464FF4C3
:1006C0007A712878B1FBF0F00A490968B1FBF0F0C3
:1006D00000F0E4FA48B9102C07D200222146501E3F
:1006E00000F030F800206C6070BD012070BD00008B
:1006F0000C000020180000200A4808B5016841F4E9
:1007000080410160006800F4804000900548001FAF
:10071000016841F080510160006800F08050009055
:1007200008BD000044380240002809DB00F01F0229
:10073000012191404009800000F1E020C0F8001143
:1007400070470000F0B40E4B1B680C46C3F3022345
:10075000C3F10705042D00D90425191D072901D26D
:10076000002300E0DB1E012606FA05F1491E2140A8
:1007700099409E40761E16403143F0BC00F0B5BD56
:100780000CED00E0064900F0070208684FF6FF0391
:10079000184040EA0220034A1043086070470000F6
:1007A0000CED00E00000FA052DE9F0470E460500CB
:1007B00065D0DFF81481D8F80000F7B200F00F0020
:1007C000B04207D288F80070D8F8000000F00F009F
:1007D000B04254D128683D4C810712D5400703D55B
:1007E000206840F4E05020602878000703D5206896
:1007F00040F4604020602068A96820F0F0000843C1
:1008000020602878C0072DD0304968680839012851
:1008100012D0022813D0032811D0096889070029B3
:100820002DDA216821F0030101432160FFF71CFF4D
:10083000814641F2883A0EE009688903EFE70968CA
:100840008901ECE7FFF710FFA0EB0901514502D940
:100850000320BDE8F0872068696800F00C00B0EB69
:10086000810FEFD1D8F80010404601F00F01B142DE
:1008700007D90770006800F00F00B04201D00120D6
:10088000E7E72878400705D52068E96820F4E050BC
:10089000084320602878000706D52068296920F4DD
:1008A000604040EAC100206000F018F82168084A62
:1008B000C1F30311515CC84006490860064800684E
:1008C000FFF7FAFE0020C4E7003C0240083802406F
:1008D000FC1300081800002010000020154810B577
:1008E000006810F00C02144813D01449042A0FD0E9
:1008F000082A0ED10F4C241F2268236802F03F0201
:100900005B0207D52068C0F38810A0FB010106E058
:10091000084610BD2168C1F38811A1FB0001002326
:10092000FFF750FC2168C1F30141491C4900B0FBAD
:10093000F1F010BD083802400024F40040787D0139
:100940002DE9F84F04006ED02078DFF83C93C00703
:10095000A9F104054AD009F104000168C1F381013D
:10096000012908D00068C0F3810002280AD1D9F813
:100970000000400206D52868800337D5606800284B
:10098000E1D033E06068B0F5803F10D0B0F5A02F23
:10099000286810D020F480302860286820F4802057
:1009A00028606068A8B1FFF75FFE06460DE0286882
:1009B00040F48030F4E740F480202860F7E700BF7F
:1009C000FFF752FE801B642873D828688003F7D590
:1009D0000CE0FFF749FE064605E000BFFFF744FEC6
:1009E000801B6428F0D828688003F7D42078DFF8CB
:1009F0009C8280074FF0000A3ED5A348001D016885
:100A000011F00C0F08D00068C0F3810002280BD150
:100A1000D9F80000400207D42868800716D5E0689E
:100A2000012800D112E02BE1E068B8B10120C8F83C
:100A30000000FFF719FE064605E000BFFFF714FEB1
:100A4000801B0228C0D828688007F7D5286821694C
:100A500020F0F80040EAC10028600DE0C8F800A0CE
:100A6000FFF702FE064604E0FFF7FEFD801B0228AA
:100A70001FD828688007F7D42078000722D5824E37
:100A800083486169703671B101210160FFF7ECFDA7
:100A9000074604E0FFF7E8FDC01B022809D83068CC
:100AA0008007F7D50EE0C0F800A0FFF7DDFD074690
:100AB00005E082E0FFF7D8FDC01B02287DD8306832
:100AC0008007F7D42078400768D5DFF8BCB100274D
:100AD0000BF13C0BDBF80000C0000BD4DBF800107E
:100AE00041F08051CBF80010DBF80000012700F046
:100AF00080500090674E3068C00510D4306840F4D4
:100B000080703060FFF7B0FD009005E0FFF7ACFDAE
:100B10000099401A022850D83068C005F6D55A4EC0
:100B2000A0686C3601280FD00528306810D020F05E
:100B300001003060306820F004003060A068B8B177
:100B4000FFF792FD00900FE0306840F00100F4E7FD
:100B500040F004003060F7E7FFF786FD0099411A86
:100B600041F28830814266D830688007F4D50EE0C3
:100B7000FFF77AFD009007E0FFF776FD0099411A34
:100B800041F28830814256D830688007F4D42FB1C2
:100B9000DBF8001021F08051CBF80010A069C8B339
:100BA0003949091D0968C1F3810102294AD0022887
:100BB000504607D0C8F8600000E03CE0FFF754FD65
:100BC00004463BE04746C8F86000FFF74DFD064687
:100BD00005E000BFFFF748FD801B02282BD82868DE
:100BE0008001F7D4D4E907010843A16A2A4A4908D9
:100BF00002EB0141626A41EA8211084394F82C1029
:100C000040EA0161C9F8001001203866FFF72CFDA9
:100C1000044606E036E000BFFFF726FD001B022871
:100C200009D828688001F7D52CE000BFFFF71CFD2C
:100C3000001B022802D90320BDE8F88F2868800134
:100C4000F4D41FE00128F7D0D9F80000E26900F4DD
:100C50008001914214D1226A00F03F0191420FD1EC
:100C600047F6C071626A0140914209D1A26A00F45C
:100C70004031914204D1E16A00F07060884201D0B5
:100C80000120D9E70020D7E704380240000047429E
:100C9000800E4742007000400000FFFF10B5401E6C
:100CA000B0F1807F01D3012010BD4FF0E0246061DE
:100CB0000F21601700F019FB0020A06107202061C0
:100CC000002010BD7047704770B590F83C20012A95
:100CD00032D0012480F83C40022280F83D20036895
:100CE0005A689D6822F070060A6832435A60134BB6
:100CF00002689A4214D0B2F1804F11D0104B9A4240
:100D00000ED0104B9A420BD00F4B9A4208D00F4B8B
:100D10009A4205D00E4B9A4202D00E4B9A4204D111
:100D2000496825F080031943916080F83D40002117
:100D300080F83C10084670BD022070BD00000140E4
:100D40000004004000080040000C00400004014086
:100D5000004001400018004010B5040003D094F892
:100D60003D0010B107E0012010BD002084F83C00D8
:100D7000204600F00DF8022084F83D00211D206877
:100D800000F03EFA012084F83D00002010BD000074
:100D900008B500680B49884212D10B48016841F040
:100DA000100101600068002200F010000090114660
:100DB0003620FFF7C7FCBDE808403620FFF7B4BC7B
:100DC00008BD000000100040403802400168CA68B9
:100DD00042F00102CA600068816801F0070106293B
:100DE00003D0016841F0010101600020704790F8D4
:100DF0003C20012A0CD0012200F83C2F0223437032
:100E000050F83C3C5961427000210170084670471F
:100E100002207047704770B50446006801694FF0C2
:100E20000005C943890715D4C168C943890711D48E
:100E3000E91E016101202077206880698007204633
:100E400002D0FFF7E7FF04E000F098F8204600F03A
:100E500096F8257720680169C943490717D4C16806
:100E6000C943490713D46FF00401016102202077C0
:100E70002068806910F4407F204602D0FFF7CAFF47
:100E800004E000F07BF8204600F079F82577206830
:100E90000169C943090716D4C168C943090712D4B7
:100EA0006FF008010161042020772068C069800785
:100EB000204602D0FFF7AEFF04E000F05FF82046C6
:100EC00000F05DF8257720680169C943C90617D489
:100ED000C168C943C90613D46FF01001016108202D
:100EE00020772068C06910F4407F204602D0FFF7C9
:100EF00091FF04E000F042F8204600F040F825772A
:100F000020680169C943C90708D1C168C943C90735
:100F100004D1891E0161204600F032F82068016981
:100F2000C943090609D4C168C943090605D46FF04D
:100F3000800101612046FFF7C5FE20680169C943B1
:100F4000490609D4C168C943490605D46FF0400178
:100F50000161204600F016F820680169C94389063E
:100F60000BD4C168C943890607D46FF02001016121
:100F70002046BDE87040FFF7A6BE70BD70477047C1
:100F800000F0A2B97047FEE770B586B0142168463C
:100F9000FFF750F915480025016841F00401016090
:100FA000016801F004010591016841F0020101604E
:100FB00000680F4E00F0020005902A4603213046DB
:100FC000FFF74DFB0320009001240221CDE90141F0
:100FD000039169463046FFF75FFACDE9004569465F
:100FE00004480294FFF758FA06B070BD303802404A
:100FF00000080240000402401CB500240E48009482
:101000000C49019401605321C0E9011440F2E73119
:101010008461C160FFF7A0FE08B1FFF73BFA0094BE
:10102000694605480194FFF74FFE002801D0FFF7FD
:1010300031FA1CBD0010004030000020FEE7FEE742
:10104000704770471E4810B500680021204A0160B3
:101050001C481E4C018013881B481E4A44F823007C
:101060001D4C44F8232053241C4B0460C0E901317B
:101070001B4BC3608161C16101620361416209234D
:10108000037543758375C375C0F88410C0F8881064
:10109000C0F88C10134BC0F88030C0F89010106866
:1010A00084621068C162D16001211046FFF79FFE83
:1010B0000848FFF78BFEBDE810400648FFF786BEE4
:1010C0000C1400081C0000207000002028000020E4
:1010D00024000020300000202C0000200024F40018
:1010E0000CE80200D111000870470000401EB0F16A
:1010F000807F01D3012070474FF0E0214861054A0D
:10110000F02082F8140D002088610720086100207B
:10111000704700000FE000E00348016811B101686A
:10112000491E0160FFF7A6BA0800002010B592B072
:1011300030216846FFF77EF814210CA8FFF77AF8F3
:1011400017480024016841F080510160006800F0F8
:10115000805011901348016841F48041016000689B
:10116000069400F48040119002200090012003902A
:10117000102004906846FFF7E3FB08B172B6FEE763
:101180000F20CDE90C040E940F9400210CA81094AC
:10119000FFF70AFB002801D072B6FEE712B010BDBF
:1011A00040380240007000400548016841F4700179
:1011B000016003494FF0006080390860704700000B
:1011C00088ED00E00148FFF726BE00003000002057
:1011D00070B5094C4FF4FA752088A84203D101215B
:1011E0000648FFF735FA2088401C80B22080A842CC
:1011F00001D90020208070BD1C00002000080240A2
:10120000F0B50268254C264D264E274F274B4FF050
:10121000804CA04209D0604507D0A84205D0B0421A
:1012200003D0B84201D0984204D122F0700E4A682F
:1012300042EA0E02A0421BD0604519D0A84217D046
:10124000B04215D0B84213D0984211D0184DA842E0
:101250000ED0184DA8420BD0174DA84208D0174DFC
:10126000A84205D0164DA84202D0164DA84203D17F
:1012700022F44075CA682A434D6922F080022A434D
:1012800002608A68C2620A688262A04201D0984203
:1012900001D10969016301214161F0BD00000140F4
:1012A0000004004000080040000C00400004014021
:1012B0000040014000440140004801400018004047
:1012C000001C004000200040064A0649121D12681A
:1012D0000968824204D1D1F88000002800D000477C
:1012E0007047000028000020FEE70907090E0028CB
:1012F00004DB00F1E02080F80014704700F00F00DC
:1013000000F1E02080F8141D704702E008C8121FA9
:1013100008C1002AFAD170477047002001E001C1DE
:10132000121F002AFBD170472DED028BFFF7AAF99F
:10133000FFF7FCFEFFF728FEFFF75EFE284D28684A
:10134000FEF7F2FF9FED278B53EC182BFEF77DFF86
:10135000FEF7F7FFFFF7CAFE244C012638B366609C
:1013600037062868FEF7E0FF884605466068401C9F
:10137000606048EC105B53EC182B51EC100BFEF73F
:1013800064FFFEF7DEFF6168B0FBF1F0B842EDD21A
:1013900048EC105B53EC182B51EC100BFEF755FF8B
:1013A000FEF7CFFF6168B0FBF1F0FFF79FFE6068CA
:1013B000A0600E4D00272F70FFF744FEDFF830804D
:1013C000A0680028FCD16068A060287818B1D8F81F
:1013D000000008A101602E70FFF786FE2F70EFE776
:1013E000180000200000000000408F400000002096
:1013F0000C1400084F76657272756E0000000000D4
:101400000000000001020304060708092000002074
:101410003014000800000020300000000A1300080B
:101420006014000830000020D80400001A130008DF
:1014300000000000010000000100000001000000A9
:1014400010000000000000000024F4000000000074
:10145000000000000000000000000000000000008C
:040000050800018965
:00000001FF
